:020000040800F2
:10000000100A00204D02000803460008DB430008E8
:1000100001460008DD250008954D0008000000009D
:10002000000000000000000000000000CF460008B3
:100030009126000800000000CD460008D1460008C7
:1000400067020008670200086702000867020008EC
:1000500067020008670200086702000867020008DC
:1000600067020008670200086702000867020008CC
:1000700067020008670200086702000867020008BC
:1000800067020008670200086702000867020008AC
:10009000670200086702000867020008670200089C
:1000A000670200086702000867020008670200088C
:1000B000670200086702000867020008670200087C
:1000C000670200086702000867020008670200086C
:1000D00067020008E14C0008670200086702000898
:1000E000670200086702000867020008670200084C
:1000F000670200086702000867020008670200083C
:10010000670200086702000867020008670200082B
:1001100067020008670200087D47000867020008C0
:100120006702000867020008E1250008670200086E
:1001300067020008670200086702000867020008FB
:1001400067020008670200086702000867020008EB
:1001500067020008670200086702000867020008DB
:1001600067020008670200086702000867020008CB
:10017000670200086702000867020008000000002C
:10018000670200086702000800F002F800F04FF86C
:100190000AA090E8000C82448344AAF10107DA45E2
:1001A00001D100F044F8AFF2090EBAE80F0013F0E5
:1001B000010F18BFFB1A43F001031847CC5600008B
:1001C000EC560000103A24BF78C878C1FAD852071C
:1001D00024BF30C830C144BF04680C6070470000C1
:1001E0000023002400250026103A28BF78C1FBD840
:1001F000520728BF30C148BF0B607047662905F021
:100200006882002070471FB505F059FA00F066FFBC
:1002100004000020002104F0C5FF401C60600020A5
:10022000002104F0A9FFE0601FBD10B510BD01F072
:1002300033FA1146FFF7E7FF04F01CFF01F08CFCD6
:1002400003B4FFF7F2FF03BC04F0C3FE0948804784
:1002500009480047FEE7FEE7FEE7FEE7FEE7FEE7A8
:10026000FEE7FEE7FEE7FEE704480549054A064BC0
:10027000704700006D470008890100081004002045
:10028000100A00201006002010060020704753EAD4
:10029000020C00F069802DE9F04B4FF00006002BB6
:1002A0001FBFB3FA83F503FA05F424FA05F65E409E
:1002B00012BF1643B2FA82F502FA05F4C5F1200521
:1002C0001EBF22FA05FC44EA0C04203556EA044C11
:1002D0004FEA144418BF641C4FF000084FF00009A7
:1002E000904271EB030C39D3002919BFB1FA81F7A1
:1002F00001FA07F6B0FA80F700FA07F6C7F120070F
:100300001EBF20FA07FC46EA0C062037B6FBF4FCB9
:10031000A7EB0507103F07F01F0BCBF120060CFAE7
:100320000BFB2CFA06F644BFB3460026202FA4BFD1
:100330005E464FF0000B5BEA060C08BF4FF0010B66
:1003400019EB0B09ABFB027C48EB0608C01B06FB54
:1003500002CC0BFB03CC71EB0C01C1E70B46024650
:1003600041464846BDE8F08B13B54FF000004FF012
:100370000001AFF30080BDE81C4070470FB4044992
:1003800010B503AA029800F0CFFB10BC5DF814FB77
:10039000180000202DE9F0474FF0000A8946044676
:1003A000C0F820A02046E1688847002876D025289C
:1003B00006D0D4E901219047206A401C2062F1E771
:1003C000E168204600258847C4F81CA0064600279F
:1003D000C4F818A02A2E09D0304604F0F3FD38B333
:1003E00004EB8708303EC8F8186019E059F8041B80
:1003F000204604EB87029161E1688847012F064699
:1004000018D1E069002820DA25F020051DE0D8F891
:10041000180000EB800006EB40003038C8F81800E8
:100420002046E1688847064604F0CCFD0028EED15E
:10043000012F0AD02E2E08D12046E16888477F1C64
:100440000646022F45F02005C4DBA069002803DA28
:10045000404245F00105A061E80701D025F01005F4
:10046000B6B1A6F14100192802D8203645F400653E
:100470004A463146204625604D46FFF7BFFE58B13B
:10048000012806D0ED1D25F0070000F1080989E7D5
:1004900004E005F1040985E730468AE7206ABDE8F3
:1004A000F08700000FB400B58DB010A9099000913D
:1004B0000B904FF0FF300A9000200C9006487844D3
:1004C0000690064878446A4607900F9909A800F0FC
:1004D000A3FD0DB05DF814FB770B00008F0B00003F
:1004E0002DE9FF5F1D464FF0FF3B91464FF000089E
:1004F0005F46D5E90146A96901987F1C8847296AAA
:10050000824688470028F6D1BAF1FF3F0CD0002E72
:1005100024F4C06419DD600614D5BAF12B0F09D09C
:10052000BAF12D0F0ED103E0584604B0BDE8F09F9C
:1005300044F48064A96901987F1C8847761E82462E
:10054000002E02DDBAF1300F03D0B9F1000F26D032
:1005500032E0A969761E01987F1C44F40074884734
:10056000002E824605DDBAF1780F06D0BAF1580F99
:1005700003D0B9F1000F10D01EE0B9F1000F02D086
:10058000B9F1100F18D1A969761E01987F1C24F4C7
:10059000007488478246102002E0082000E00A200C
:1005A000814609E0A96908FB0908761E01987F1CAD
:1005B00044F4007488478246002E05DD49465046C3
:1005C00000F0C4FA0028EDDAE96901988847A0052F
:1005D00002D46FF00100A8E7E00725D1600613D52B
:1005E000600502D5C8F1000000E0404629680A1DF8
:1005F0002A600968220501D5087015E0220701D597
:10060000088011E008600FE02868011D296000687B
:10061000210502D580F8008006E0210702D5A0F868
:10062000008001E0C0F8008038467EE7032A40F2EF
:10063000308010F0030C00F0158011F8013BBCF184
:10064000020F624498BF11F801CB00F8013B38BF9C
:1006500011F8013BA2F1040298BF00F801CB38BFAA
:1006600000F8013B11F0030300F00685083AC0F0E2
:10067000088051F8043B083A51F804CBA0E8081070
:10068000F5E7121D5CBF51F8043B40F8043BAFF3A3
:100690000080D20724BF11F8013B11F801CB48BFFD
:1006A00011F8012B24BF00F8013B00F801CB48BF33
:1006B00000F8012B70474FF0000200B51346944636
:1006C0009646203922BFA0E80C50A0E80C50B1F1AA
:1006D0002001BFF4F7AF090728BFA0E80C5048BFBE
:1006E0000CC05DF804EB890028BF40F8042B08BF5C
:1006F000704748BF20F8022B11F0804F18BF00F858
:10070000012B7047704770477047704770472DE95D
:10071000FF4F0C461E464FF0FF378BB0D2E9000169
:10072000DDF860800A908A46C1F30A5505B93D4656
:10073000002108464FF00000BAF1000F00F440001D
:1007400005DA00EB80004FF4400101EA50004FEA67
:100750009059B9F1010F00DDB9460A9850EA4A00F4
:100760000ED044F61050A5F2FF3545432F14B8F1D2
:10077000000F1ED07542291E1EDDC9F100021CE0CB
:10078000B8F1010F4FF0000001D0302103E0F24337
:1007900005E02154401CB042FBDB30460022002122
:1007A00021540B99C1F80880C1E900200FB0BDE8C1
:1007B000F08FBD1B6D1CDEE74A4600DA694206A8D1
:1007C00000F0F4FE06AB93E8070003AB83E80700F4
:1007D00050460A9901F019FA8DE80700A0F500507B
:1007E0001F3800900398002D09DD42F21F014A4690
:1007F000084403A90390684601F0A3FC08E0A0F5B3
:1008000000504A461F3803A90390684601F0C1FC16
:100810008DE807000004000C03D04FF0FF304108C2
:1008200000E01046B8F1000F03D0002200921546F8
:100830001EE0751E05D400F059FC303262556D1E65
:10084000F9D5B3460122084302D000227F1C04E000
:100850002078302801D100227F1E002A099786D0F7
:100860001DE0112D07DA00F041FC303262556D1C9D
:1008700050EA0102F5D1084302D00098C8B10EE059
:100880000021681E05E0235C625C63542254401E14
:10089000491C8142F7DBAB46A81B401E0990002093
:1008A00004F80B000B98099AC0F80880C0E9002BE7
:1008B0007CE711264FF0000859E72DE9F04F8846F4
:1008C0000446D21D22F0070191B0D1E90001CDE923
:1008D0000A0104F060FA02460B98C00F01D02D20E7
:1008E00007E02068810701D52B2002E0202101EAE2
:1008F000C000032A099001D0072A05DB03464146C0
:10090000204600F059FC0BE12078800601D5E06913
:1009100000E00620B8F1650F814606D0B8F1660FF9
:1009200018D0B8F1670F70D131E00020B9F1110F84
:10093000009001DB112301E009F101030AAA01A9DA
:100940000CA8FFF7E4FEDDE90C70002609F10105B3
:10095000834647E001204B4600904FF000470AAA2B
:1009600001A90CA8FFF7D3FEDDE90DB00C995D4697
:10097000002610B909F101000D18B9EB050003D4E8
:10098000C0F1FF3609F10105A5EB09002BE0B9F133
:10099000010F01DA4FF001090020B9F1110F0090A9
:1009A000484601DD112300E003460AAA01A90CA86C
:1009B000FFF7ADFEDDE90C704D460026834620783A
:1009C00000070AD4AB4500DA5D4601A8012D04DD1D
:1009D000411911F8011C302907D04F4502DA17F1EF
:1009E000040F04DA012082460FE06D1EEEE7002FAF
:1009F00002DCED1B3E4403E0781CA84200DD7D1CB8
:100A0000B81B00F1010A4FF000472078000703D41B
:100A1000AA4501DB4FF0FF3A0021B7F1004F0DF17D
:100A200043088DF8431024D002202B23002F01DA35
:100A30007F422D230A21021EA0F1010000DC5FB1DC
:100A400097FBF1FC97FBF1F201FB1C7C17460CF1C4
:100A5000300C08F801CDEEE7A8F101000370218801
:100A6000090501D5452100E06521A0F1010800F844
:100A7000011C09980FA9A1EB0807FF1D00B1012077
:100A8000411901EBEA70A1693844081A401EA061BF
:100A90002078C00602D42046AFF30080099828B120
:100AA000D4E901219047206A401C20622078C006CA
:100AB00022D52046AFF300801EE0002E04DBB345B4
:100AC00002DD01A8805D00E03020D4E901219047DB
:100AD000206A401C2062761CAAF101005FEA000A2D
:100AE0000AD100F0FBFAC0680168405CD4E901213A
:100AF0009047206A401C2062281EA5F10105DCDC1D
:100B000007E0D4E9012118F8010B9047206A401C46
:100B10002062381EA7F10107F3DC2046AFF3008006
:100B2000032011B043E60000074B70B50D467B442F
:100B300000F02FFB0446284600F0A6FD10B14FF050
:100B4000FF3070BD204670BDA34400003A2800D29B
:100B5000303820F02002412A01D3A2F13700884228
:100B600001D34FF0FF3070472DE9FF4F064689B0A3
:100B70000878FF2806D0491C2D2805D000244FF006
:100B8000000908E000200CE00124F8E709EB8903E4
:100B9000491C00EB43090878FF28F7D114B1C9F1CB
:100BA00000008146107800252C46AA4629462D28AB
:100BB00001D02B2804D1521C2D2813D000208246AE
:100BC0008B461078FF280FD04FF0000C0A21521CE2
:100BD000A5FB017804FB018105FB0C11C5194BEB4A
:100BE0000104EEE70120EAE7002108464FF000008B
:100BF000BAF1000F02D000EB80004008C0F381582A
:100C0000B8F1010F01DD4FF0FF380C9809EB000738
:100C100055EA040009D04FF0020917F5FA7F0BDA04
:100C20004FEACA70C6E900B012E04FEACA70C6E9DE
:100C300000B00DB0BDE8F08FB7F5FA7F0DDDF048DC
:100C40007844D0E90010C6E9001040EACA7070602C
:100C500000F048FAC0F80090EBE7391E02DAC8F15C
:100C6000000200E0424600DA794206A800F09EFC4D
:100C700006AB93E8070003AB83E8070044F23E00AD
:100C80005BEA04010090584604D144F21E012C4650
:100C90005D460091210C0904014306D1009924040A
:100CA00044EA15442D041039009104F07F410143BA
:100CB00006D10099240244EA15642D0208390091F6
:100CC00004F07041014306D10099240144EA1574EF
:100CD0002D01091F009104F04041014306D1009904
:100CE000A40044EA9574AD00891E009104F000410F
:100CF000084304D100986D196441401E009042469B
:100D00006846002FCDE9014503A902DD01F055FA3F
:100D100001E001F02AFABAF1000F04460D4601D0B5
:100D200084F0004440F2FF7724F00040284303D0D1
:100D3000C4F30A50B84212D100F0D4F9C0F80090C0
:100D4000C4F30A50B8420AD1AE487844D0E9001042
:100D5000C6E9001004F000410843706069E7C6E985
:100D6000005466E72DE9FF4F1F464FF0000A4FF091
:100D7000FF38454691B0D7E90146CDF83CA000F0D8
:100D8000ADF9C0680168405C1090B96912986D1C9B
:100D90008847396A814688470028F6D1B9F1FF3F74
:100DA0000AD0002E24F4D06411DDB9F12B0F08D045
:100DB000B9F12D0F0BD102E0404615B03AE744F4EB
:100DC0008064B96912986D1C8847761E814660055B
:100DD00004A901D52D2000E02B20002E01F1010BEC
:100DE0000DF130088DF810003FDDB9F1690F08D022
:100DF000B9F1490F05D0B9F16E0F02D0B9F14E0F1C
:100E00001CD13B4601A8009580E85002DDE9121292
:100E10006FF0020004F0C3FCC11CCED10EE0B96932
:100E200012986D1C884781461398761E44F400740E
:100E300005600F98401C002E0F9016DDB9F1300FA1
:100E4000EDD0B9F1780F02D0B9F1580F0DD10F984C
:100E500001280AD13B46CDE90054DDE91212001FFA
:100E6000029604F09AFCC11CA7D1109989453ED185
:100E700044F0800406E01399681CAAF1010A44F4C6
:100E800000740860B9696D1C1298761E8847302876
:100E90008146F0D02BE01099894505D1200603D476
:100EA000761E44F0800418E0484604F08BF808B33E
:100EB000761E0DF123018B4544F4007408D2A9F18C
:100EC00030000BF8010B200607D5AAF1010003E062
:100ED000200602D40AF101008246A00502D513992A
:100EE000681C0860B96912986D1C88478146002EFD
:100EF000D1DC53E0002E51DDB9F1650F02D0B9F11C
:100F0000450F4BD1A00549D5B9696D1C1298761EC5
:100F100024F440748847002E81460CDD2B2804D031
:100F2000B9F12D0F07D144F48074B96912986D1C82
:100F30008847761E8146E00501D52D2100E02B2152
:100F400008F8011BCDF8008021E0761E0DF1390173
:100F5000884544F400740CD2A9F1300010F0FF0071
:100F600088F8000002D10099884509D908F10108E4
:100F700006E0E00501D5244801E042F20F70824608
:100F8000B96912986D1C8847814613980560002E38
:100F900004DD484604F016F80028D6D1F969129805
:100FA0008847FF2053468BF8000088F80000002097
:100FB0000A900B9004AA0CA90AA8FFF7D5FDA0057A
:100FC00002D46FF00100F8E614F0240F0AD0E00715
:100FD00014D13868DDE90A12031D3B600068C0E9DE
:100FE00000120BE00AA9684603F086FFE00705D16E
:100FF0003868009A011D3960006802602846DCE606
:10100000644C00005A4B0000F1D8FFFF0268114405
:101010001378016018467047D160054979445161E1
:1010200004497944116200211161114600F004B9AC
:10103000EDFFFFFF51010000426842B1016811F865
:10104000013B23B1521EC0E900121846704701212E
:10105000C160881E704742685AB1C368016843B9CD
:1010600083688B4205D0491E521CC0E90012002043
:1010700070474FF0FF30704710B5203AC0F00B803A
:10108000B1E81850203AA0E81850B1E81850A0E88C
:101090001850BFF4F5AF5FEA027C24BFB1E81850E6
:1010A000A0E8185044BF18C918C0BDE810405FEA56
:1010B000827C24BF51F8043B40F8043B08BF7047D2
:1010C000D20728BF31F8023B48BF11F8012B28BFD7
:1010D00020F8023B48BF00F8012B704700487047DA
:1010E000CC03002000487047AC03002030B5B0F1BD
:1010F0000A024FEA900E71F100034EEA817EB0EBD6
:101100000E0061EB91014FEA101E4EEA017E10EBDA
:101110000E0041EB11114FEA102E4EEA016E10EB5A
:101120000E0041EB11214FEA104E4EEA014E10EB3A
:101130000E0041EB1141401841F100014FEAD0008F
:1011400040EA41704FEAD10110EB80054FEA81047B
:1011500044EA907444EB01046D1944EB0404521BFF
:10116000A3414FF0000348BF0A3200D530BD401CF8
:1011700041F1000130BD10B5044600F0B3FA00683B
:10118000005D00F0010010BD01694A1C0261087891
:10119000704700B58FB0CDE90131002105910549B7
:1011A0007944CDE9031011466846FFF7F3F80FB014
:1011B00000BD0000E5FFFFFF2DE9F0411F4604469A
:1011C00003260168072A01F4006004DB08B116A5B4
:1011D00005E016A503E008B115A500E015A521F06E
:1011E00010002060A069C01EA0610FB1401EA06168
:1011F0002046AFF300804FB1D4E901213846904733
:10120000206A401C2062C01C206206E0206AFAE7C7
:10121000D4E9012115F8010B9047761EF8D220463B
:10122000AFF30080BDE8F0814E414E006E616E006C
:10123000494E4600696E66002DE9F34F4FF0000AF3
:101240000C4656468DB001200C9001F10C000B901D
:1012500062690B980121904705002DD0252D2CD0D7
:10126000216A8847C0B162690B9801219047216AC1
:1012700088470028F7D16269411E0B98904700E02B
:10128000761CA1690D988847216A88470028F7D104
:10129000E1690D988847DBE7A1690D988847A84266
:1012A000074601D1761CD3E7E1690D9888477F1C7A
:1012B00002D1BAF1000F6FD06BE162690B98002781
:1012C0003D46394690472A2804D162690B9801218E
:1012D00090470125DFF8D08262690B980121904781
:1012E000A0F130010A290AD24745E5DC07EB870166
:1012F00000EB4107303FDFD445F01005ECE7E9068D
:1013000001D46FF000476C280AD04C2814D068280C
:1013100015D06A280DD074281CD07A281AD01DE068
:1013200062690B98012190476C2802D045F00405B2
:1013300014E045F002050DE045F020050AE0626981
:101340000B9801219047682802D045F0080505E078
:1013500045F4006562690B9801219047C4E9015783
:1013600065283DD019DC58287AD00CDC452837D0C8
:1013700004DC252826D041289ED131E046282FD0F4
:10138000472899D12CE05B2877D0612828D06328A2
:101390007CD0642823D15AE0F6E06F2848D008DCDE
:1013A00066281DD067281BD0692821D06E2816D149
:1013B00027E0702845D0732868D0752847D0782852
:1013C0000DD14DE0A1690D988847252805463FF4C9
:1013D00069AFE1690D9888476D1C3FF46AAFD8E0AA
:1013E0000D9923466A466FF0010004F0D4F9C5E078
:1013F00045F0400023464FF000026060A80736D455
:101400003EE0E8077FF447AF2068011D21600068D7
:10141000290501D506701BE7290701D5068017E7C6
:10142000A90703D5F117C0E9006111E706600FE7CE
:1014300045F0400023464FF008026060A80716D42C
:101440001EE040F60E0125EA0100606016E045F05E
:10145000400023464FF00A026060A80707D40FE05F
:1014600045F040006060A80708D5234610220D997A
:101470006FF00100AFF3008080E007E01022234608
:101480000D996FF00100FFF72BF877E04FF000099E
:1014900063284F46C8464B46CB4602D05B2806D051
:1014A00038E0E80601D40120A060012732E062693B
:1014B000D4F80CB00B98012190475E2807D14FF06B
:1014C000010949466269D4F80CB00B98904721692C
:1014D00039B900210A4603AB43F82120491C0829E9
:1014E000FADBD8B3216949B308F1010862690B98A6
:1014F000012190475D28F4D1B9F1000F09D00020F7
:1015000003A951F82020D24341F82020401C08288C
:10151000F7DB03AB2069002820794FEA40701ED02A
:101520005B462246CDF80080CDE901970D99002851
:101530006FF0010020DAAFF300801FE0C11703AAAB
:1015400000EBD1614B1121F01F0102EB8302411A24
:1015500013680120884003431360C7E719E00D9921
:10156000224600286FF00100009702DAAFF30080F6
:1015700004E0AFF3008001E0AFF3008000280ADA56
:10158000401C06D10C9820B14FF0FF300FB0BDE8E1
:10159000F08F5046FAE7E90701D10AF1010A064443
:1015A00000200C9054E60000CCCCCC0C2DE9F04788
:1015B000814616468AB0334878440DC88DE80D0040
:1015C00030487844801C03AC0DC884E80D0041F617
:1015D0009B300844372190FBF1F290FBF1F5A5F127
:1015E000800501FB12041B3C02D56442012000E08F
:1015F0000020DFF890A080460027FA44AAF1BE0A36
:101600000DE0E00709D03246684607EB47010AEBD8
:10161000810100F0BEFD8DE8070064107F1C002CE6
:10162000EFD1184F7F44AC3F18E0E80714D007EB28
:1016300004100DF1180A90E80E008AE80E00C06848
:10164000F04201D198190890324606A903A800F08B
:10165000A0FD03AB83E807006D10641C002DE4D1EE
:1016600032466946B8F1000F03A802D000F069FDC8
:1016700001E000F08EFDC9E90001C9F808200AB0B8
:10168000BDE8F087B4420000007B00F080007047A6
:1016900000487047AC0300207546FFF7F9FFAE46DF
:1016A00005006946534620F00700854618B020B56E
:1016B000FEF7DAFDBDE820404FF000064FF00007CE
:1016C0004FF000084FF0000B21F00701AC46ACE8EA
:1016D000C009ACE8C009ACE8C009ACE8C0098D4657
:1016E0007047000010B5FFF7F9FC001D10BD00BFEA
:1016F000B53A000010B5FFF7F5FC006810BD10B555
:101700000446FFF7EFFC046010BD00002DE9FF4F19
:101710001F464FF03C0987B04FF00042DDE914103E
:1017200001F10108DDF858A002EA405003900020C2
:1017300004908346054604460590B969461E0898FC
:101740008847AAF1010A0290BAF1000F37DD02982A
:101750002E2815D01021FFF7F9F900282ADB4FF0C9
:10176000010B0499014316D0B9F1000F0BDB4A4677
:10177000C11700F037FA05430C43A9F1040905E04D
:101780000120059007E008B145F001050120049013
:10179000059800B9361DB969089808F1010888470D
:1017A000BBF1000FAAF1010A0290CDD00999C1F84E
:1017B0000080C9E70298702808D0502806D0F9693F
:1017C00008988847BBF1000F14D04FE0002002902A
:1017D0000120BBF1000F049009D0B969089808F105
:1017E00001088847AAF10109B9F1000F07DCF9697E
:1017F000089888476FF001000BB0BDE8F08F2B28E8
:1018000004D02D280CD14FF0FF300490B96908980E
:1018100008F101088847A9F10109B9F1000FE6DDD7
:10182000411CE4D00A21FFF791F90028DFDB02997F
:1018300008F1010801EB810100EB41000290B96958
:10184000089888470A21FFF781F9099AA9F1010947
:10185000B9F1000FC2F8008001DD0028E7DAF9696C
:10186000089888470499029800FB016655EA04002D
:1018700004D004F04041090002D006E0039898E04B
:10188000A40044EA9574AD00B61E04F000410800BF
:1018900002D16D196441761E159810F0240F03D003
:1018A0004FF00B095C4803E04FF028096FF07D0012
:1018B0008246564507DAAAEB06018944B9F1410F81
:1018C00001DD4FF0410901200021A9F1010200F0E2
:1018D00089F9024628400B462140084301D00121E6
:1018E00000E00021501E029143F1FF3128402140C9
:1018F000084301D0012000E000200299834651EA0C
:101900000B014FD0002108464FF00000039900F46E
:10191000400039B100EB80004FF4400100EBD07083
:1019200001EA60008015012802DD4FF0FF3000E081
:1019300013D0401C36D0029860B3BBF1000F0CD11D
:101940004A460120002100F04DF92840214008437B
:1019500001D0012000E00020E0B101204A46002132
:1019600000F040F9034640190A4661412D1A8C41A6
:1019700011D3B9F1400F09DD159810F0240F02D0F2
:10198000AAF1340603E0AAF1170600E0761C002550
:101990004FF0004406E05B1E42F1FF3220EA0305EF
:1019A00021EA0204CAF10100B04206DA1B49039899
:1019B00008430190002000900EE0039AC4F3D32165
:1019C000E80A0A43164940EA44500A433146CDE941
:1019D0000002684603F0ECFA159810F0240F0BD0C3
:1019E0001598C00715D13868DDE90012031D3B606A
:1019F0000068C0E900120CE002A8694603F07CFA16
:101A00001598C00705D13868029A011D3960006831
:101A100002604046F0E6000002FCFFFF0000F07F9D
:101A20000000F03F2DE9FF4F92461D4685B04FF074
:101A30000041DDE9124BDDE914727F1E01EA4B50D3
:101A4000414940F0FF4940EA0108002122F020000E
:101A50004928049102D04E2828D04CE03BA0012612
:101A600007C88DE80700A9690698641C88477F1E8F
:101A7000014606D41DF8060018B121F0200181426C
:101A80000BD0E96906988847032E34D0082E32D04F
:101A90006FF0010009B0BDE8F08F761C032E01D075
:101AA000082EE0D1601CCAF80000DCE7A96906989E
:101AB000641C88477F1E2AD420F02000412826D1AC
:101AC000A9690698641C88477F1E20D420F0200056
:101AD0004E281CD1A9690698641C88477F1E48F4CB
:101AE000002849F48009CAF8004001D4282806D00B
:101AF000E969069888475FEACB7012D022E0A969AD
:101B00000698641C88477F1E01D4002803DAE9691F
:101B100006988847BCE72928F1D1641CCAF8004020
:101B2000E9E71BF0240F07D028680499031D2B60F8
:101B30000068C0E9001805E02868021D2A600068F6
:101B4000C0F800902046A5E70000F07F494E4649C6
:101B50004E495459000000000446AFF3008020466F
:101B6000FEF76EFB4FF0013C50F8042B51F8043B9C
:101B70009A4221D1A2EB0C03934313EACC1317D161
:101B800050F8042B51F8043B9A4215D1A2EB0C03F8
:101B9000934313EACC130BD150F8042B51F8043BB8
:101BA0009A4209D1A2EB0C03934313EACC13DBD086
:101BB0004FF00000704700BFD01A01BAB1FA81F1AE
:101BC00001F0180122FA01F0CB40C1F12001DBB293
:101BD000C0B2C01A2CFA01F3D11A914311EAC31111
:101BE000E6D17047B2F120030AD5C2F1200301FA11
:101BF00002F120FA03F300FA02F041EA0301704710
:101C000000FA03F14FF0000070475FEA400C08BF94
:101C100091F0000F4FEA8C234FEAC12243EA515161
:101C20004FEA1C5018BF00F5F0404FEA300018BFD3
:101C300041F000415FEA6C5C00F02980BCF1FF3F9D
:101C400008BF40F080407047130C06BF12044FF0ED
:101C5000100C4FF0000C130E04BF12020CF1080C14
:101C6000130F04BF12010CF1040C930F04BF920078
:101C70000CF1020CD30F04BF52000CF1010C114601
:101C80004FF00002A0F11F00A0EB0C00704711F014
:101C9000004F08BF704731F000413FF4D5AF0B0C47
:101CA00006BF09044FF0100C4FF0000C0B0E04BFE0
:101CB00009020CF1080C0B0F04BF09010CF1040C14
:101CC0008B0F04BF89000CF1020CCB0F04BF49003D
:101CD0000CF1010CCCF12003A0EB0C0022FA03F371
:101CE00002FA0CF241EA030100F10100704720F012
:101CF0007F4C80EA030023F07F47ACEB070303F53A
:101D00007C5300F0004003F1FF032DE980494FEAC6
:101D1000154B09B44FEA144325EA0B4E24EA034855
:101D20000FF2042606EB132749083E785FEA3202D9
:101D300003FB0667C7F5000707FB06F64FEA5437B3
:101D40004FEAD64606F1020607FB066CCCF1005CB2
:101D50004FEA1C472CEA074C07FB06F40CFB06F580
:101D600004EB15464FEA961634BF00204FF00040B2
:101D70004FEAD13706FB07FC4FEA1C4C0CFB0BF774
:101D8000D21B03FB0CF761EB07010CFB0EF7B0EB6A
:101D9000074072EB17420CFB08F734BFA2EB074277
:101DA000B2EB074261EB17414FEA0C444FEA91074F
:101DB00006FB07FC4FEA1C4C0CFB0BF7B0EBC740D3
:101DC00072EB573203FB0CF734BFA2EBC742B2EB06
:101DD000C74261EB57310CFB0EF7B0EBC70072EB5B
:101DE00057720CFB08F734BFA2EBC702B2EBC70275
:101DF00061EB5771039F4FEA816141EA921104EB55
:101E0000CC044FEAD1374FEA826206FB07FC42EA74
:101E100090124FEA80604FEA1C4C0CFB0BF7D21B70
:101E200003FB0CF761EB07010CFB0EF7B0EB07406F
:101E300072EB17420CFB08F734BFA2EB0742B2EB80
:101E4000074261EB17414FEA8C554FEA910704EBCB
:101E50009C2406FB07FC4FEA1C4C0CFB0BF7B0EB79
:101E6000C74072EB573203FB0CF734BFA2EBC742FB
:101E7000B2EBC74261EB57310CFB0EF7B0EBC7007A
:101E800072EB57720CFB08F734BFA2EBC702B2EB40
:101E9000C70261EB577115EB4C254FEA816141EAAE
:101EA00092114FEA82624FEAD13742EA901206FB62
:101EB00007FC44F100044FEA80604FEA1C4C0CFB25
:101EC0000BF7D21B03FB0CF761EB07010CFB0EF7C2
:101ED000B0EB074072EB17420CFB08F734BFA2EBE4
:101EE0000742B2EB074261EB174115EB1C154FEAB5
:101EF000813141EA92414FEA823242EA90424FEA0E
:101F000080304FEA0C7644F1000448EA03434EEA7D
:101F10000B484FF0000EB2EB080C71EB030724BF27
:101F2000624639464EEB0E0E4FF0000B0018524140
:101F300049414BEB0B0BB2EB080C71EB03077BF148
:101F4000000B24BF624639464EEB0E0E4FF0000BDD
:101F50000018524149414BEB0B0BB2EB080C71EBF3
:101F600003077BF1000B24BF624639464EEB0E0E91
:101F700051EA020718BF46F0010616EB0E7655F13E
:101F8000000254F1000103D5BDE88901BDE80088D5
:101F9000BDE88901BDE80048B619524141EB010195
:101FA000A3F10103704780807F7E7D7C7B7A797806
:101FB000777676757473727171706F6E6E6D6C6C0E
:101FC0006B6A6A69686867666665646463636261B0
:101FD0006160605F5F5E5E5D5D5C5C5B5B5A5A5931
:101FE000595858575756565555555454535352529D
:101FF0005251515050504F4F4F4E4E4D4D4D4C4CF5
:102000004C4B4B4B4A4A4A4949494848484747473D
:10201000474646464545454444444443434343427A
:10202000424242414141000046EA0646A3F5705350
:102030004FEA164646EA42564FEAD22242EA415257
:1020400010B54FEAD121A3F1010300F017F820F0F9
:10205000004000F1010C00F0004701EB0050114678
:10206000BCF5006F40EA070000D210BD02484FF0F7
:10207000000140EA070010BD0000F07F002B26D4CD
:10208000770021D01CB54FEA370703B44FF010009A
:102090004FF010014FF000000FBCBDE810400BF1F5
:1020A000010BBBF1010F08BF5FEA170722BF12F156
:1020B000010211F101014FF0004143F1000300F072
:1020C000004043EA00007047F9D35708DAE746EAD0
:1020D000064613F1400F4FEA16461FDD13F1200F9D
:1020E000DFBF16430A46002120335B42C8D0C3F14C
:1020F000200746EA064602FA07F74FEA164646EA7E
:102100000706C3F1200722FA03F201FA07F721FAC2
:1021100003F14FF0000342EA0702B1E746EA020684
:1021200046EA06464FEA164646EA0106BCBF46EABC
:102130000646360C4FF000034FF000024FF000014E
:102140009EE72DE9C048934630B491E8380007C8AF
:1021500031EA400C48BF34EA430C03D5FFF7C7FD12
:10216000FFF78CFFF0BCBDE800882DE9C04893461E
:1021700030B491E8380007C831EA400C48BF34EA6F
:10218000430C03D5FFF7B3FDFFF74EFFF0BCBDE8EE
:1021900000882DE9C048934630B491E8380007C85C
:1021A00010F0804F08BF13F0804F03D100F019F8F2
:1021B000FFF764FFF0BCBDE800882DE9C0489346F6
:1021C00030B491E8380007C810F0804F08BF13F012
:1021D000804F03D100F005F8FFF726FFF0BCBDE803
:1021E000008820F07F4780EA030023F07F4C07EB54
:1021F0000C03A3F57C5300F00040A3F1FE0392F022
:10220000000F00F0B38095F0000F00F077802DE90B
:1022100001494FEA11404FEA144621EA004800FB09
:1022200006FC24EA064708FB06F607FB08F800FB55
:1022300007F718EB06484CEB164C4FEA124B18EB1D
:1022400007484FEA15464CEB174022EA0B4E0BFBB2
:1022500006FC25EA06470EFB06F607FB0EFE0BFB07
:1022600007F71EEB064E4CEB164C4FF000061EEB2C
:10227000074E4CEB174B18EB0B0840F1000018EB26
:102280000E0B58EB000840F100008F1A4FF00001D0
:102290003CBFC943661B14BFB5EB040C00213CBF17
:1022A000C943F61B4FEA17444EEA8E0E27EA04454F
:1022B0004FEA1C4704FB07622CEA074C05FB07F7B3
:1022C0000CFB05F604FB0CFC16EB074642EB174231
:1022D00016EB0C4642EB1C421BEB060658EB0202C7
:1022E000414146EA9E0601D5BDE80189B619524131
:1022F00041EB0101A3F10103BDE801894FEA144557
:102300004FEA114724EA054621EA074C05FB07F48A
:1023100006FB07F70CFB06F105FB0CFC11EB074174
:1023200044EB17444FEA124711EB0C4144EB1C44B9
:1023300022EA074C05FB07F206FB07F70CFB06F643
:1023400005FB0CFC16EB074642EB174216EB0C465E
:1023500042EB1C456A1854F1000148BF7047B6199A
:10236000524141EB0101A3F10103704795F0000FC9
:1023700037D04FEA11424FEA144721EA024624EAD5
:10238000074C02FB07F106FB07F70CFB06F402FB08
:102390000CFC14EB074441EB17414FEA154714EBD3
:1023A0000C4441EB1C4125EA074C02FB07F506FBF8
:1023B00007F70CFB06F602FB0CFC16EB074645EB99
:1023C000174516EB0C4645EB1C42121951F1000162
:1023D00048BF7047B619524141EB0101A3F1010317
:1023E00070474FEA14454FEA114724EA054621EAAF
:1023F000074C05FB07F106FB07F70CFB06F24FF055
:10240000000605FB0CFC12EB074241EB174112EBF7
:102410000C4251EB1C4148BF7047921841EB01013F
:10242000A3F10103704710B50146806B026C12F0F6
:10243000500F05D0026CD20626D500F0E3F910BD8E
:10244000016C41F40071016401688A6812F0405F18
:1024500017D1027EAAB9CA6A12F4700F02D08A6834
:1024600052050ED44A6822F020024A60016C21F421
:1024700080710164016CC90403D4016C41F0010155
:10248000016400F0BDF910BD806BC26CBDE8104066
:102490000846104710B5806B40210164416C41F043
:1024A0000401416400F0AEF910BD10B5806B00F07E
:1024B000A8F910BD464910B54A6822F440324A6076
:1024C0004A6843681A434A6001684A6822F4807285
:1024D0004A6001684A68036942EA03224A60016867
:1024E0004A6822F040724A6001684A6883681A4369
:1024F0004A6001688A6822F400628A6001688A681A
:10250000C3681A438A60816A6FF07062D1420168C1
:102510008A6822F070628A6001688A680CD0836AD7
:102520001A438A6001688A6822F040528A60016812
:102530008A68C36A1A4301E022F040528A60016847
:102540008A6822F002028A6001688A68037E42EA91
:1025500043028A6090F82010002901684A680FD071
:1025600042F400624A6001684A6822F460424A60AC
:1025700001684A68174C436A04EB43331A4301E08D
:1025800022F400624A600168CA6A22F47002CA62D8
:102590000168CA6A838B104C04EB03531A43CA6266
:1025A00001688A6822F400728A6001688A6890F87B
:1025B000303042EA43228A6001688A6822F48062ED
:1025C0008A6001688A68406942EA8020886010BD9C
:1025D0000023014000E0FFFF0000F0FFFEE70000E5
:1025E000014800F08FBA000078020020016818232B
:1025F000CAB2103AB2FBF3F2054B6FF30901032A9A
:102600009B5CC36500D9091D8165084670470000C1
:10261000D257000810B5014600208B698A6A4FF036
:10262000C07453B1B3F5005F15D072B1012A0CD05C
:10263000022A0AD0032A09D104E01AB1012A06D0DD
:10264000022A03D1C96AC90100D5012010BDC96A97
:10265000A142FAD010BD002AF7D0012AF2D0022AF6
:10266000F3D0032AF3D010BD30B50468256825F4F3
:1026700080252560046863608368402B036803D06D
:1026800099600068C26030BD9A600068C16030BD6A
:10269000704710B50C460122891C01F077FED4F872
:1026A0000C01002802D10A20C4F80C0110BD72B63A
:1026B000FEE7000078B50024009490F83C20012A41
:1026C00019D0012280F83C200A6807230568092AEE
:1026D00013D9EE680A3A02EB420293409E43EE6041
:1026E0000B788A680A3B03EB43039A400368DD6872
:1026F0002A43DA6010E0022078BD2E6902EB420224
:1027000093409E432E610B788A6803EB43039A4003
:1027100003681D692A431A614A681F23072A13D2D6
:1027200005686E6B521E02EB820293409E436E63FD
:102730000B790A885B1E92B203EB83039A4003680D
:102740005D6B2A435A6327E005680D2A12D22E6B6F
:10275000D21F02EB820293409E432E630B790A88BC
:10276000DB1F92B203EB83039A4003681D6B2A437D
:102770001A6311E0EE6A0D3A02EB820293409E4327
:10278000EE620B790A880D3B92B203EB83039A4009
:102790000368DD6A2A43DA62164B0568144A9D42D3
:1027A00006D10D68122D03D1556845F4800555609A
:1027B00005689D4218D10B68102B01D0112B13D145
:1027C000536843F400035360096810290CD10A4987
:1027D0000A4A0968B1FBF2F101EB8101490000E00E
:1027E000491E00910029FBD180F83C40002078BDB3
:1027F00000230140002001402800002040420F003B
:1028000070477047704770B504004FF0000503D063
:10281000206C002610B107E0012070BD204600F0BA
:102820001DF8666484F83C60206CC00610D4206CEF
:1028300020F4885040F0020020642046FFF73AFE62
:102840006664206C20F0020040F00100206400E08B
:10285000012584F83C60284670BD000070B586B044
:10286000064614216846FDF726FF1E493068884257
:1028700036D11D480025016841F4007101600068EF
:1028800000F40070059018481438016841F0010107
:1028900001600068694600F001000590102000907A
:1028A0000320CDE90105114800F0B0FA114C1048A1
:1028B00020604FF00070C4E90105C013C4E9035063
:1028C000800060618000A0618011C4E90705204696
:1028D000656200F0E7F908B1FFF7E9FEB463A663AB
:1028E00006B070BD002101404438024000000240A3
:1028F0004064024078020020F8B5044600200E46ED
:10290000009094F83C10012907D0012184F83C1074
:1029100021688B68DB0702D011E00220F8BD8B68CC
:1029200043F001038B604049404B0968B1FBF3F170
:1029300001EB410100E0491E00910029FBD1216813
:102940008B68DB0503D58B6823F480738B6021686B
:102950008B68DB075DD0236C40F20165AB4343F429
:10296000807323644968490505D5216C21F4005121
:1029700041F480512164216CC90404D5616C21F0BB
:102980000601616400E0606484F83C00A16B2948A2
:10299000274DC863A16B28480864A16B2748C86409
:1029A00021686FF0220008602068416841F0806172
:1029B00041602068816841F480718160216813461C
:1029C00032464C31A06B00F0D7F968681C49C0064C
:1029D000206806D0884224D1816811F0405F13D06E
:1029E0001FE08842F8D0174A904203D1D1F804235F
:1029F000D206F1D0144A904213D1D1F8041301F059
:102A00001F011029E8D30CE0816841F0804181600A
:102A100007E0206C40F010002064606C40F0010082
:102A200060640020F8BD00002800002040420F0034
:102A30000023014027240008AB2400089524000847
:102A40000020014000210140002201402DE9F04119
:102A50000446876D00F0D2FA064694F8350000254A
:102A6000022806D08020606584F834500120BDE83B
:102A7000F0812068016821F0160101602068416939
:102A800021F080014161206C08B9A06C20B1206860
:102A9000016821F0080101602068016821F001014E
:102AA00001600CE000F0AAFA801B052807D920205D
:102AB0006065032084F8350084F83450D7E7206837
:102AC0000068C007EED194F85C103F208840B860E1
:102AD000012084F8350084F834500020C7E790F8CE
:102AE0003510022903D0802141650120704705215E
:102AF00080F835100068016821F0010101600020B4
:102B0000704700002DE9F84304464FF00009CDF866
:102B1000009063484FF41651A56D0068B0FBF1F7C3
:102B20002E6894F85C10082000FA01F131420FD0B1
:102B300021680A6852070BD50A6822F004020A606D
:102B400094F85C108840A860606D40F001006065FA
:102B500094F85C104FF0010808FA01F0304208D0F8
:102B600021684969090604D5A860606D40F002003B
:102B7000606594F85C1004208840304208D02168D9
:102B80000968890704D5A860606D40F0040060659D
:102B900094F85C1010208840304218D021680968F1
:102BA000090714D5A86020680168490304D50068A6
:102BB000000308D5A16C07E00168C90503D40168CA
:102BC00021F008010160216C09B12046884794F882
:102BD0005C1020208840304231D021680968C90645
:102BE0002DD5A86094F8350005282068016806D026
:102BF000490347D5006800031DD4616C1CE021F037
:102C0000160101602068416921F080014161206C5A
:102C100008B9A06C20B12068016821F008010160AA
:102C200094F85C103F208840A86084F8358084F8D0
:102C30003490216D1FE0E16B09B120468847606D3B
:102C400000282BD0606DC00714D0052084F8350013
:102C50002068016821F0010101600098401C00908B
:102C6000B84203D820680068C007F6D184F83580E0
:102C700084F83490E16C002910D001B02046BDE802
:102C8000F04308470168C905D5D4016821F0100157
:102C9000016084F8358084F83490CCE7BDE8F8838F
:102CA000280000202DE9F041044600F0A7F906466F
:102CB0005CB1022084F83500002584F83450206887
:102CC000016821F0010101600DE00120BDE8F08103
:102CD00000F094F9801B052805D9202060650320A9
:102CE00084F83500F2E720680068C007F0D1226858
:102CF000116820480140D4E901031843D4E90336A0
:102D00003343184363691843A3691843E3691843BD
:102D1000236A18430843616A042903D1D4E90B13D9
:102D200019430843106020684069666A20F0070173
:102D300030460E43012704280CD1A06A0643E06AFE
:102D400040B12046FFF766FC20B14020606584F862
:102D50003570BAE7206846612046FFF747FC94F8D3
:102D60005C203F2191408160656584F835700020CA
:102D7000ACE700003F8010F02DE9F0410446866D7D
:102D800090F83400002501280DD0012084F834008B
:102D900094F835700020012F07D084F83400022504
:102DA0002846BDE8F0810220FBE7022784F8357051
:102DB00060652046FFF758FC94F85C103F2088407F
:102DC000B0602068016841F016010160206C20B1FC
:102DD0002068016841F0080101602068016841F045
:102DE00001010160DCE7000070B5044600F006F95F
:102DF0000546601C02D004480078044400F0FEF848
:102E0000401BA042FAD370BD1C0000202DE9F84FF2
:102E1000DFF8BCA1002201250AF1040B03264FF0C4
:102E20000F090BF1040E00BF0B6805FA02F42340F2
:102E3000A34270D10F7907F00307012F01D0022FB1
:102E400016D187684FEA420806FA08FC27EA0C0701
:102E5000D1F80CC00CFA08FC4CEA070CC0F808C00A
:102E60004768A7430C79C4F3001494403C43446082
:102E70000C79E443A4070AD0C4684FEA420C06FA6E
:102E80000CF7BC438F6807FA0CF72743C7600C792F
:102E900004F00304022C12D1D40800EB840CDCF8FB
:102EA00020405707FF0E09FA07F824EA0804D1F872
:102EB000108008FA07F848EA0408CCF82080046873
:102EC0004FEA420C06FA0CF7BC430F7907F00307F0
:102ED00007FA0CF7274307604C6814F4403F70D0A2
:102EE0003C4C276847F480472760246822F003079A
:102EF00004F480440094384C07EB040CDCF80848D8
:102F000097074FEA177809FA08F7BC43334FB842DE
:102F100002D1002724E054E0314FB84201D101270B
:102F20001EE0304FB84201D1022719E02E4FB842BF
:102F300001D1032714E02D4FB84201D104270FE03F
:102F40002B4FB84201D105270AE02A4FB84201D1E0
:102F5000062705E0284FB84201D1072700E00827DF
:102F600007FA08F72743CCF80878DAF80040574604
:102F7000D1F804C09C435FEACC3C00D51C433C60C4
:102F8000DBF800405F46D1F804C09C435FEA8C3C0C
:102F900000D51C433C60DEF800407746D1F804C001
:102FA0009C435FEACC2C00D51C433C60084F0C3797
:102FB0003C68D1F804C09C435FEA8C2C00D51C43CC
:102FC0003C60521C102AFFF42FAFBDE8F88F0000C0
:102FD000003C014044380240003001400000024003
:102FE0000004024000080240000C024000100240B1
:102FF0000014024000180240001C02400148806892
:10300000704700001C0000200248816802781144CB
:10301000816070471C0000200B4810B5016841F426
:1030200000710160016841F480610160016841F450
:1030300080710160032000F071F8032000F006F8B1
:1030400000F024F8002010BD003C024070B50D4D8A
:1030500004464FF47A712878B1FBF0F00A49096808
:10306000B1FBF0F000F00CFB48B9102C07D20022A5
:103070002146501E00F032F800206C6070BD012027
:1030800070BD00001C000020280000200B4882B00A
:10309000016841F480410160006800F480400090C4
:1030A0000648001F016841F080510160006800F08F
:1030B00080500090052002B000F030B84438024043
:1030C000002809DB00F01F02012191404009800027
:1030D00000F1E020C0F8001170470000F0B40E4B82
:1030E0001B680C46C3F30223C3F10705042D00D966
:1030F0000425191D072901D2002300E0DB1E01264B
:1031000006FA05F1491E214099409E40761E164060
:103110003143F0BC01F057BE0CED00E0064900F071
:10312000070208684FF6FF03184040EA0220034AEE
:1031300010430860704700000CED00E00000FA0545
:103140002DE9F0470E46050065D0DFF81481D8F868
:103150000000F7B200F00700B04207D288F8007014
:10316000D8F8000000F00700B04254D128683D4C68
:10317000810712D5400703D5206840F4E050206055
:103180002878000703D5206840F46040206020685C
:10319000A96820F0F000084320602878C0072DD0EF
:1031A000304968680839012812D0022813D0032852
:1031B00011D00968890700292DDA216821F003015F
:1031C00001432160FFF71AFF814641F2883A0EE081
:1031D00009688903EFE709688901ECE7FFF70EFF4B
:1031E000A0EB0901514502D90320BDE8F087206812
:1031F000696800F00C00B0EB810FEFD1D8F8001037
:10320000404601F00701B14207D90770006800F09D
:103210000700B04201D00120E7E72878400705D534
:103220002068E96820F4E05008432060287800070F
:1032300006D52068296920F4604040EAC10020607A
:1032400000F038F82168084AC1F30311515CC84006
:103250000649086006480068FFF7F8FE0020C4E74A
:10326000003C024008380240DA57000828000020DD
:10327000200000200448054900680968044AC1F399
:103280008221515CC8407047280000200838024065
:10329000EA5700080448054900680968044AC1F370
:1032A0004231515CC8407047280000200838024075
:1032B000EA570008154810B5006810F00C021448D1
:1032C00013D04110042A0FD0082A0ED10F4C241F0E
:1032D0002268236802F03F025B0207D52068C0F332
:1032E0008810A0FB010106E0084610BD2168C1F36B
:1032F0008811A1FB00010023FCF7C9FF2168C1F37D
:103300000141491C4900B0FBF1F010BD08380240F2
:103310000024F4002DE9F84F04006ED02078DFF887
:103320004C93C007A9F104054AD009F104000168D3
:10333000C1F38101012908D00068C0F3810002288F
:103340000AD1D9F80000400206D52868800337D595
:1033500060680028E1D033E06068B0F5803F10D0AD
:10336000B0F5A02F286810D020F48030286028689D
:1033700020F4802028606068A8B1FFF73FFE064671
:103380000DE0286840F48030F4E740F480202860A5
:10339000F7E700BFFFF732FE801B642873D8286868
:1033A0008003F7D50CE0FFF729FE064605E000BFD5
:1033B000FFF724FE801B6428F0D828688003F7D428
:1033C0002078DFF8AC8280074FF0000A3ED5A7488E
:1033D000001D016811F00C0F08D00068C0F38100D7
:1033E00002280BD1D9F80000400207D428688007D2
:1033F00016D5E068012800D112E033E1E068B8B1E9
:103400000120C8F80000FFF7F9FD064605E000BFFF
:10341000FFF7F4FD801B0228C0D828688007F7D585
:103420002868216920F0F80040EAC10028600DE01A
:10343000C8F800A0FFF7E2FD064604E0FFF7DEFD56
:10344000801B02281FD828688007F7D4207800073F
:1034500022D5864F87486169703771B101210160BB
:10346000FFF7CCFD064604E0FFF7C8FD801B0228ED
:1034700009D838688007F7D50EE0C0F800A0FFF73C
:10348000BDFD064605E082E0FFF7B8FD801B02287F
:103490007DD838688007F7D42078400768D5DFF8F2
:1034A000CCB100270BF13C0BDBF80000C0000BD4C3
:1034B000DBF8001041F08051CBF80010DBF8000081
:1034C000012700F0805000906B4E3068C00510D48A
:1034D000306840F480703060FFF790FD009005E0A8
:1034E000FFF78CFD0099401A022850D83068C005BB
:1034F000F6D55E4EA0686C3601280FD005283068DE
:1035000010D020F001003060306820F004003060FE
:10351000A068B8B1FFF772FD00900FE0306840F08E
:103520000100F4E740F004003060F7E7FFF766FDC4
:103530000099411A41F28830814266D8306880078C
:10354000F4D50EE0FFF75AFD009007E0FFF756FDB7
:103550000099411A41F28830814256D8306880077C
:10356000F4D42FB1DBF8001021F08051CBF800101B
:10357000A069C8B33D49091D0968C1F38101022949
:103580004AD00228504607D0C8F8600000E03CE06E
:10359000FFF734FD04463BE04746C8F86000FFF7FC
:1035A0002DFD064605E000BFFFF728FD801B022821
:1035B0002BD828688001F7D4D4E907010843A16A11
:1035C0002E4A490802EB0141626A41EA821108432E
:1035D00094F82C1040EA0161C9F800100120386607
:1035E000FFF70CFD044606E03EE000BFFFF706FDD6
:1035F000001B022809D828688001F7D534E000BFF5
:10360000FFF7FCFC001B022802D90320BDE8F88F5D
:1036100028688001F4D427E00128F7D0D9F8000009
:10362000E26900F4800191421CD1226A00F03F015E
:10363000914217D147F6C071626A0140B1EB821F17
:1036400010D1A26A4FF0FF3300F4403103EB520275
:10365000B1EB024F06D194F82C1000F07060B0EB83
:10366000016F01D00120D1E70020CFE704380240EC
:1036700000004742800E4742007000400000FFFFFC
:1036800010B5401EB0F1807F01D3012010BD4FF076
:10369000E02460610F21601701F095FB0020A0611C
:1036A00007202061002010BD7047704710B590F8CA
:1036B0003C20012A22D0012280F83C20CA688C6874
:1036C00022F4407222434C6822F4806222430C6848
:1036D00022F4006222430C6922F4805222434C6996
:1036E00022F400522243C969002322F480420A4393
:1036F00001684A6480F83C30002010BD022010BDF3
:1037000070B590F83C20012A32D0012480F83C406A
:10371000022280F83D2003685A689D6822F07006F6
:103720000A6832435A60134B02689A4214D0B2F1CD
:10373000804F11D0104B9A420ED0104B9A420BD0B2
:103740000F4B9A4208D00F4B9A4205D00E4B9A422B
:1037500002D00E4B9A4204D1496825F080031943E8
:10376000916080F83D40002180F83C10084670BD13
:10377000022070BD0000014000040040000800402D
:10378000000C0040000401400040014000180040CF
:1037900010B50446022249B104290ED0082913D0DD
:1037A00094F84500012816D0012010BD94F842007D
:1037B0000128F9D184F842200FE094F84300012851
:1037C000F2D184F8432008E094F844000128EBD1BA
:1037D00084F8442001E084F845200422206801F0A8
:1037E0004AF82068416C41F4004141641149206865
:1037F000884214D0B0F1804F11D00F4988420ED0CA
:103800000E4988420BD00E49884208D00D498842A3
:1038100005D00D49884202D00C49884204D1816804
:1038200001F00701062903D0016841F001010160A0
:10383000002010BD000001400004004000080040CE
:10384000000C00400004014000400140001800400E
:1038500010B5040003D094F83D0010B107E001203A
:1038600010BD002084F83C00204600F01FF8022024
:1038700084F83D00211D206800F08CFF012084F8B1
:10388000460084F83E0084F83F0084F8400084F845
:10389000410084F8420084F8430084F8440084F82E
:1038A000450084F83D00002010BD000008B5006808
:1038B0001149884209D11148016841F001010160B4
:1038C000006800F00100009008BD0D498842FBD15E
:1038D0000A48001F016841F01001016000680322DE
:1038E00000F01000009002213620FFF7F7FBBDE842
:1038F00008403620FFF7E4BB000001404438024096
:103900000010004090F83D10012901D001207047BF
:10391000022180F83D100168CA6842F00102CA60C5
:1039200000681149884214D0B0F1804F11D00F497E
:1039300088420ED00E4988420BD00E49884208D0EA
:103940000D49884205D00D49884202D00C49884271
:1039500004D1816801F00701062903D0016841F014
:103960000101016000207047000001400004004098
:1039700000080040000C00400004014000400140ED
:103980000018004070B5044690F83C00002501285E
:1039900017D0012684F83C60022084F83D0020689E
:1039A000826822F0770222F47F4282600868502801
:1039B00038D00DDC20284FD005DC90B3102811D171
:1039C0004AE0022070BD302846D040280AD13BE0B2
:1039D00060282FD070280DD0B0F5805F03D0B0F5EF
:1039E000005F12D0012584F83D60002084F83C007F
:1039F000284670BDCB68D1E90121206800F048FF5E
:103A00002068816841F0770109E0CB68D1E90121A4
:103A1000206800F03DFF2068816841F480418160AA
:103A2000E1E719E0CA684968206801F005F850210B
:103A3000206806E0CA684968206801F00EF8602135
:103A4000206800F02FFFCEE7CA684968206800F0C0
:103A5000F3FF40212068F4E7226801461046F0E7B2
:103A6000704770B50446006801694FF00005C9430E
:103A7000890715D4C168C943890711D4E91E0161BA
:103A800001202077206880698007204602D0FFF758
:103A9000E7FF04E000F0D6F8204600F068F925774B
:103AA00020680169C943490717D4C168C943490758
:103AB00013D46FF00401016102202077206880692F
:103AC00010F4407F204602D0FFF7CAFF04E000F068
:103AD000B9F8204600F04BF9257720680169C94301
:103AE000090716D4C168C943090712D46FF0080149
:103AF0000161042020772068C0698007204602D039
:103B0000FFF7AEFF04E000F09DF8204600F02FF92B
:103B1000257720680169C943C90617D4C168C9431C
:103B2000C90613D46FF010010161082020772068C6
:103B3000C06910F4407F204602D0FFF791FF04E0F7
:103B400000F080F8204600F012F92577206801691E
:103B5000C943C90708D1C168C943C90704D1891E2F
:103B60000161204600F068F920680169C94309062F
:103B700009D4C168C943090605D46FF08001016109
:103B80002046FFF791FD20680169C943490609D421
:103B9000C168C943490605D46FF040010161204660
:103BA00000F04CFA20680169C94389060BD4C1684A
:103BB000C943890607D46FF0200101612046BDE8A2
:103BC0007040FFF772BD70BD70B586B00446142119
:103BD0006846FCF770FD17492068884227D11648CF
:103BE0000024016841F001010160016801F0010158
:103BF0000591016841F0100101600068022500F0A4
:103C00001000059080200090CDE901540126CDE9F7
:103C1000034669460948FFF7F9F828020090CDE904
:103C20000154CDE9034669460548FFF7EFF806B0B1
:103C300070BD00000000014030380240000002402A
:103C400000100240704770B5044690F83C00002612
:103C50000D4601280FD0012084F83C006AB1042AE7
:103C60001DD0082A2FD00C2A3FD00126002084F82E
:103C70003C00304670BD022070BD206800F01AFE86
:103C80002068816941F0080181612068816921F023
:103C900004018161206881692A69114311E020686B
:103CA00000F038FE2068816941F40061816120687C
:103CB000816921F480618161206881692A6941EA12
:103CC00002218161D2E7206800F05AFE2068C169B4
:103CD00041F00801C1612068C16921F00401C1619E
:103CE0002068C1692A69114311E0206800F07CFE58
:103CF0002068C16941F40061C1612068C16921F493
:103D00008061C1612068C1692A6941EA0221C161FB
:103D1000ACE710B5040003D094F83D0010B107E003
:103D2000012010BD002084F83C00204600F01EF861
:103D3000022084F83D00211D206800F02BFD0120A9
:103D400084F8460084F83E0084F83F0084F8400080
:103D500084F8410084F8420084F8430084F8440069
:103D600084F8450084F83D00002010BD704770477E
:103D700010B50446022249B104290ED0082913D0F7
:103D800094F84100012816D0012010BD94F83E009F
:103D90000128F9D184F83E200FE094F83F00012873
:103DA000F2D184F83F2008E094F840000128EBD1DC
:103DB00084F8402001E084F841200122206800F0CE
:103DC0004DFD16492068164A884201D0904203D121
:103DD000436C43F4004343642068884213D0B0F13D
:103DE000804F10D00F4988420DD00F4988420AD029
:103DF0000E49884207D0904205D00D49884202D032
:103E00000C49884204D1816801F00701062903D0DA
:103E1000016841F001010160002010BD0000014077
:103E2000000401400004004000080040000C004075
:103E300000400140001800402DE9F041604C05466B
:103E40002DED048B21786048491C21705D4900F0FC
:103E50007EFF5E4928685E4D0026884249D1607821
:103E60005C4F401C6070386801F034FA9FED5A9B3B
:103E700053EC192B01F07EFA9FED598B53EC182B64
:103E800001F078FA01F0A4F900EE100A012001F027
:103E90005FF910EE100A01F0A1FB41EC100B52A0EB
:103EA00053EC102BFCF76AFA607801281DD13868B2
:103EB00001F010FA53EC192B01F05CFA53EC182BBB
:103EC00001F058FA01F084F900EE900A95ED0A0A23
:103ED000284600F09FFB95ED070A4849BCEEC00A52
:103EE000096810EE100A80B248636078052800D196
:103EF0006670207801285AD1324F787801285AD13B
:103F00007E702F4A07F18600121D3DA18046FCF706
:103F1000C9FA01281CD02A4A3BA1121D4046FCF7D1
:103F2000C1FA012819D0264A39A1121D4046FCF7D2
:103F3000B9FA012816D0224A37A1121D4046FCF7D3
:103F4000B1FA012813D097F886006F2814D017E033
:103F500094ED010A85ED000A29E094ED010A85ED52
:103F6000010A24E094ED010A85ED020A1FE094EDB8
:103F7000010A85ED0A0A1AE097F887006B2808D035
:103F80000F4A28A108324046FCF78CFA012804D0D9
:103F90000DE027A0FCF7F2F909E094ED020AF2EE39
:103FA000040AB8EE400A80EE201A85ED0A1A20783D
:103FB000052800D12670BDEC048BBDE8F08100001F
:103FC0000C000020200100206803002000100040A9
:103FD000F4000020080000206666666666660A40F7
:103FE000000000000000303F74352E7478743D22CC
:103FF000252E326622FFFFFF00000000D8020020BD
:104000006B703A25660000006B693A256600000077
:104010006B643A2566000000766F6C74653A25661D
:1040200000000000766F6C7465323A256400000071
:104030006F6B2E656E3D31FFFFFF000070477047CC
:1040400070470000F8B5016804460868CA684B6903
:1040500010F00F0F4FF000055AD003F0010602F4E4
:104060009077374365D0C10705D0D10503D5216CC2
:1040700041F001012164410705D5D90703D0216C26
:1040800041F002012164810705D5D90703D0216CD5
:1040900041F004012164010707D502F020013143FA
:1040A00003D0216C41F008012164216C00293BD030
:1040B000800604D5900602D5204600F00FFD20684A
:1040C0004069216CC0F3801001F0080101432046D3
:1040D0002BD000F0DCFC20684069400621D5206828
:1040E000143050E8001F21F0400140E80012002A7F
:1040F000F5D1A06BA8B16C490165A06BFEF7EFFC90
:10410000002811D0A06B016D01B0BDE8F040084758
:1041100083060ED593060CD52046BDE8F84000F086
:10412000DDBC2046FFF78CFFF8BDFFF789FF256453
:10413000F8BD266B2023012E79D1C60677D5D60689
:1041400075D50868486800904869400640D5A16B5D
:10415000086840680004000CEAD0A28D8242E7D9CA
:10416000E085C869B0F5807F2DD020680C3050E81C
:10417000001F21F4807140E80012002AF5D1206868
:10418000143050E8001F21F0010140E80012002A1D
:10419000F5D12068143050E8001F21F0400140E8BC
:1041A0000012002AF5D184F83E30256320680C30D7
:1041B00050E8001F21F0100140E80012002AF5D15C
:1041C000A06BFEF743FCA08DE18D401A81B229E07F
:1041D000A08DE18D401A81B2E08D0028A8D0002981
:1041E000A6D020680C3050E8002F22F4907240E8EE
:1041F0000026002EF5D12068143050E8002F22F060
:10420000010240E80026002EF5D184F83E302563F7
:1042100020680C3050E8002F22F0100240E8002304
:10422000002BF5D12046FFF70AFFF8BDFFE7050692
:104230002BD5150629D594F83D002128F5D1A06885
:10424000B0F5805F01D12069B0B1206A411C2162C4
:10425000216800784860E08C401E0004000CE08477
:10426000E3D12068C16821F08001C1602068C16885
:1042700041F04001C160D8E7206A0088C0F308001F
:104280004860206A801C2062E5E74006CDD55006D4
:10429000CBD5CA68204622F04002CA6084F83D307F
:1042A00000F09AF8C1E700007F4A000870B50400EA
:1042B00004D094F83D00002510B106E0012070BD47
:1042C00084F83C50204600F023F8242084F83D0078
:1042D0002068C16821F40051C160204600F05EFCF6
:1042E0002068016921F4904101612068416921F051
:1042F0002A0141612068C16841F40051C160256410
:10430000202084F83D0084F83E00002070BD0000AD
:1043100010B586B0044614216846FCF7CCF918495C
:104320002068884229D117480021026842F0100213
:104330000260006800F0100005901248143802680E
:1043400042F001020260006800F0010005904FF4A5
:10435000C06000900220CDE90101032003900720F6
:10436000049069460848FEF751FD022211462520B7
:10437000FEF7B4FE2520FEF7A3FE06B010BD000038
:1043800000100140443802400000024090F83E30E6
:10439000202B0ED159B152B190F83C30012B08D0EE
:1043A000012380F83C300023036300F07DBC012032
:1043B000704702207047000000680449884203D11A
:1043C0000349044800F092BC70470000001001400F
:1043D00020010020680300207047FEE71FB5002180
:1043E0001548009101910291124A039102604FF425
:1043F0008032C0E9012101240161047680F8201097
:104400000E4AC0E90A21C461C16080F830404461AD
:10441000FEF7F9F908B1FEF74AF90420CDE90004E6
:10442000029069460448FEF745F9002801D0FEF7DE
:104430003EF91FBD00210140300200200100000FA5
:10444000094808B5016841F4800101600068002254
:1044500000F48000009011463A20FEF73FFEBDE8D0
:1044600008403A20FEF72CBE303802400D4808B50F
:10447000016841F080010160016801F08001009154
:10448000016841F001010160016801F00101009142
:10449000016841F010010160006800F01000009018
:1044A00008BD00003038024030B595B000240F94AC
:1044B00010941194129413941C2108A81494FCF7DE
:1044C000FAF820216846FCF7F6F82C482A490160E2
:1044D0001421C0E9011440F21F31C0E90314802106
:1044E000C0E90541FFF7B4F908B1FEF7E0F84FF471
:1044F00080550FA921480F95FFF744FA08B1FEF740
:10450000D6F81E48FFF705FC08B1FEF7D0F8139463
:1045100013A91A481494FFF7F3F808B1FEF7C7F887
:10452000602008904FF4C870CDE909040B940C94F6
:104530000D94002208A911480E94FFF784FB08B1DE
:10454000FEF7B5F84FF4006000904010CDE901048B
:104550009420CDE903054FF40050059040000790EA
:1045600069460648FFF7A2F808B1FEF7A0F803482D
:10457000FFF72AFB15B030BD00000140D802002033
:104580001CB500240F4800940D490194016053218B
:10459000C0E9011442F21071C16080218161FFF70E
:1045A00057F908B1FEF783F800946946054801946D
:1045B000FFF7A6F8002801D0FEF779F81CBD00002F
:1045C00000100040200300200C4810B50A4901608B
:1045D0004FF4E1314160002181600C22C160C0E9EB
:1045E00004128161C161FFF761FE002803D0BDE8BC
:1045F0001040FEF75CB810BD0010014068030020B9
:10460000FEE7FEE7C0ED061A80EC030A203080ECDE
:10461000032A704700B50146F0EE601A002000F052
:1046200097FD30EE610ADFED250A9FED251A25483A
:1046300020EE200A0122C0EE010AC1ED030A91ED2D
:10464000000AB0EEE01A11EE103A20EE800AB3F143
:10465000804F81ED070A02DD0023038000E0028025
:10466000028091ED051AD1ED011A00EEA11AF7EEC4
:10467000001A81ED051A01EE810A91ED041AD1EDBF
:10468000021A30EEC11A01EE210A81ED070AB5EED9
:10469000C00AF1EE10FA02D89FED0B0A08E091ED86
:1046A000081AB4EEC10AF1EE10FA01DBB0EE410ACD
:1046B00081ED070AC1ED040A00BD00000000484476
:1046C00052270C4000000020000000007047704797
:1046D000FEF79ABC30B593B030216846FBF7EBFF8C
:1046E00014210CA8FBF7E7FF1E480025016841F0E4
:1046F00080510160006800F0805011901A480168F4
:1047000041F4804101600068022400F4804011906F
:1047100001200090000401908001CDE906400820AE
:1047200008904FF4A870CDE9090404200B90684666
:10473000FEF7F0FD08B172B6FEE70CA90F2081E884
:1047400031004FF4A0500F904FF48050109005218D
:104750000CA8FEF7F5FC002801D072B6FEE713B0F6
:1047600030BD00004038024000700040024801683F
:1047700041F470010160704788ED00E00148FFF7E7
:1047800070B90000200300200148FFF7BBB800000B
:1047900020030020F0B50268254C264D264E274FF9
:1047A000274B4FF0804CA04209D0604507D0A8426B
:1047B00005D0B04203D0B84201D0984204D122F0D3
:1047C000700E4A6842EA0E02A0421BD0604519D022
:1047D000A84217D0B04215D0B84213D0984211D099
:1047E000184DA8420ED0184DA8420BD0174DA84224
:1047F00008D0174DA84205D0164DA84202D0164D3C
:10480000A84203D122F44075CA682A434D6922F0B8
:1048100080022A4302608A68C2620A688262A042F9
:1048200001D0984201D10969016301214161F0BDC4
:10483000000001400004004000080040000C00405F
:104840000004014000400140004401400048014094
:1048500000180040001C00400020004010B501F08E
:104860001F030121046A99408C430462016A9A4043
:104870001143016210BD10B501F01F030421046A49
:1048800099408C430462016A9A401143016210BD51
:1048900010B5846842EA032224F47F440A43224389
:1048A000826010BD826822F070020A4342F0070164
:1048B00081607047F0B5026A22F001020262036A69
:1048C00042688469124E24F073050C682C4323F06F
:1048D00002058B682B430D4DA84201D0B04205D193
:1048E00023F00807CB683B4323F00403A84201D020
:1048F000B04205D14D6922F4407215438A692A43BA
:1049000042608461496841630362F0BD0000014078
:1049100000040140F0B5026A22F010020262026A4D
:10492000436884690D6824F4E64444EA05248D68EC
:1049300022F0200242EA05120F4D104EA84201D08B
:10494000B04206D1CF6822F0800242EA071222F07C
:104950004002A84201D0B04207D14D6923F4406320
:1049600043EA85038D6943EA8503436084614968AE
:1049700081630262F0BD00000000014000040140BC
:10498000F0B5026A22F480720262026A4368C46966
:1049900022F4007224F073050C68124E2C438D68CB
:1049A00042EA05220E4DA84201D0B04206D1CF689E
:1049B00022F4006242EA072222F48062A84201D077
:1049C000B04207D14D6923F4405343EA05138D6982
:1049D00043EA05134360C4614968C1630262F0BDE4
:1049E000000001400004014030B5026A22F4805208
:1049F0000262046A4268C3690D6823F4E64343EA2D
:104A000005238D6824F4005444EA0534084DA84277
:104A100002D0084DA84204D14D6922F4804242EAF6
:104A200085124260C36149680164046230BD0000C0
:104A3000000001400004014010B5036A046A24F03C
:104A400001040462846924F0F00444EA021423F0AF
:104A50000A020A438461026210BD10B5036A23F0A2
:104A6000100303628369046A23F4704343EA023249
:104A700024F0A00343EA01118261016210BD10B568
:104A8000806B0021C185C184FFF7DAFA10BD01688F
:104A90000C3151E8002F22F4907241E80023002BE2
:104AA000F5D10168143151E8002F22F0010241E8EC
:104AB0000023002BF5D1016B012909D101680C31CC
:104AC00051E8002F22F0100241E80023002BF5D11D
:104AD000202180F83E1000210163704708B590F84E
:104AE0003E10222901D0022008BD82684FF4805375
:104AF0009A4201D1016921B1816A9A421BD04AB11F
:104B00000AE00268816A5268C2F308020A80816A78
:104B1000891C08E0026972B10268526802F07F02E3
:104B20000A70816A491C8162C18D491E0904090C01
:104B3000C18503D019E002685268F1E70168CA68CC
:104B400022F02002CA600168CA6822F48072CA603A
:104B500001684A6922F001024A61202180F83E1072
:104B6000016B012903D0FFF727FC002008BD0021BD
:104B7000016301680C3151E8002F22F0100241E876
:104B80000023002BF5D101680A68D20602D50A6815
:104B900049680091818DFFF752FAE6E770B5044647
:104BA00000680169E26821F4405111430161216903
:104BB000A068E26908436169114308432168CA6833
:104BC00049F20C639A430243CA6020684169A269B2
:104BD00021F440711143416131492068884202D07B
:104BE0003049884202D1FEF755FB01E0FEF742FB57
:104BF000E2690023192164253226B2F5004F62686C
:104C000028D0A0FB0101930F9200FBF740FB014667
:104C1000B0FBF5F06FF01802504301EB800006EB9B
:104C20000010B0FBF5F000F0F002B1FBF5F002EB84
:104C30000012B1FBF5F06FF01803584301EB800050
:104C400006EB0010B0FBF5F000F00F0021681044F7
:104C5000886070BDA0FB010192185B41FBF717FB58
:104C60000146B0FBF5F00201B1FBF5F06FF018035F
:104C7000584301EB800006EBC000B0FBF5F000F0FC
:104C8000F80002EB4002B1FBF5F0584301EB800065
:104C900006EBC000B0FBF5F000F00700D6E700001F
:104CA000001001400014014081628285C28500210C
:104CB0000164222280F83E2080F83C100168CA6816
:104CC00042F48072CA6001684A6942F001024A6196
:104CD0000068C16841F02001C160002070470000F9
:104CE0000148FFF7AFB900006803002070B5012547
:104CF0000C4606460D70FEF781F9C4F80801A1784C
:104D000094F884002218401C84F88400117194F8EF
:104D100084007F2814D394F8842004F18600211D98
:104D20000646FBF783FC14F8840F6070217800209E
:104D3000885504F8835C04F8840C2070012070BD51
:104D40000122A11C3046FFF721FB002070BD70B589
:104D500008780C46E0B1FEF751F9D4F80811401A72
:104D60000A2815D994F8842004F18600211D0546EF
:104D7000FBF75CFC14F8840F607021780020485524
:104D8000012104F8831C04F8840C2070084670BDCF
:104D9000002070BDFEE703B401984100009850EA7E
:104DA000C12018BF04204A0D18BF40F0010040F296
:104DB000FF72B2EB515F08BF40F00200012808BF4C
:104DC000052002B070470907090E002804DB00F136
:104DD000E02080F80014704700F00F0000F1E020A0
:104DE00080F8141D7047000030B540F2FF742DEDBF
:104DF000048BF0EE608A18EE901A85B0B0EE408A0F
:104E00009FED2B9B05468DED008B34EA115147D069
:104E100053EC192B51EC180B00F020FA40D02A4625
:104E200051EC180B00F089FC41EC180B18EE900ABD
:104E30008DED008B34EA10501CD053EC192B51EC43
:104E4000180B00F00BFA2BD10220FCF758FC00F0F5
:104E500043F810EE901A18EE900A8DED020B8DEDCE
:104E6000008B61F31E0003909DED020B05B0BDECBD
:104E7000048B30BD0220FCF742FC00F01DF810EE60
:104E8000901A18EE900A8DED020B8DED008B61F3F8
:104E90001E0003909DED020B05B0BDEC048B30BDF0
:104EA00005B0B0EE480AF0EE680ABDEC048B30BDE8
:104EB00000000000000000009FED050B10B553EC52
:104EC000102B51EC100B00F055FA41EC100B10BDFB
:104ED00000000000000000709FED050B10B553ECC2
:104EE000102B51EC100B00F045FA41EC100B10BDEB
:104EF000000000000000001030B504462DED048BCA
:104F000081B06A4691ED008B51EC180B00F06CF803
:104F100000989FED239B7E300090002821DC53EC0D
:104F2000192B51EC180B00F099F91AD0002140F61A
:104F300008004FF00000054651EC180B00F048F94E
:104F400008EE100A40F6080005EA00014FF00000E4
:104F5000B5EEC08AF1EE10FA04BF0220FCF7CFFBD9
:104F600017E00098FF280EDB0220FCF7C8FB53EC8B
:104F7000192B51EC180B00F0FBFA8CBF9FED0A8A3D
:104F80009FED0A8A05E051EC180B00F021F908EEBC
:104F9000100A84ED008A01B0BDEC048B30BD000026
:104FA0000000000000000000000080FF0000807F83
:104FB00010B5044690ED000B0846FFF715FF84ED91
:104FC000000B10BD30380A2801D2012070470020A4
:104FD0007047704703490A685206FCD5C2B24A605E
:104FE000704700000010014010B582B01446CDE9B2
:104FF00000010023009A2360194B21F000409842E1
:105000002ADA024328D0B0F5801FA8BF226810DA40
:105010009FED150B53EC102B9DED000B51EC100B7D
:1050200000F0A8F9CDE900016FF0350221F0004051
:1050300022600F4B6FF31E5103EB20501044206091
:1050400041F0FF5040F0005001909DED000B00BF7B
:1050500002B051EC100B10BD9DED000BF8E7000005
:105060000000F07F0000000000000000000050433E
:1050700002FCFFFFFDF7D0FFFFF72CFBFFF7F6F96F
:10508000FFF712FAFFF77CFAFFF79EFAFFF7D8F95D
:10509000FFF7A4F99FED193AF2EE042A9FED182AC2
:1050A000DFED181A9FED181ADFED180A9FED180AA8
:1050B0001848FFF7A7FA174917482C31FDF7E9FA06
:1050C00014493222C8391548FDF716FCFFF75CFB7E
:1050D00000F028F80F4D124CC83D322661680020C0
:1050E00055F82020401CC0B211443228F8D3B1FB3F
:1050F000F6F060600520FDF777FEEFE733335340AD
:1051000000C0474400007A440AD7233C8FC2753E52
:10511000E17A143FF40000206803002030020020F0
:105120000400002010B500210848FEF721FE08B158
:10513000FDF7BDFA00210548FEF72AFB002803D041
:10514000BDE81040FDF7B3BA10BD0000D802002042
:105150009FED071ADFED070A20B100EE201AB0EE2E
:10516000410A704730EE411A81EE200A7047000074
:10517000A913503C9EEF914010B500290AD0087841
:10518000002807D005487844FCF7ECFC002801D043
:10519000002010BD0248784410BD00002A0700001E
:1051A0002207000010B500290AD00878002807D08F
:1051B00005487844FCF7D6FC002801D0002010BD3B
:1051C0000248784410BD00001A07000012070000D2
:1051D00021F00042A2F16052B2F5801F01F00043BD
:1051E00028BFD2F17F6C0BD95FEA001C43EAC202F0
:1051F00042EB507018BF704728BF20F00100704785
:10520000B2F5801FBCBF184670474FEA410C1CF531
:10521000001F02D2084600F057BA70B500F054F9EA
:1052200000000089FFF7F6BF4FF00040A0F58000B6
:105230007047000002494FF0000000F04CBA00BF78
:105240000000F87F491058BFC1F140415B1058BFC2
:10525000C3F140438B42EFF30080704751EA030CE7
:1052600017D41CF5801F58BFBCF5801F00F10680C5
:10527000994218BF704708BF9042704707D711F591
:10528000801F58BF13F5801F19D499427047894277
:1052900070471CF5801F08D5BCF5801FF7D58B42E1
:1052A00018BF704708BF824270474FF4001C1CEBC8
:1052B000410F38BF1CEB430F01D28B42704770B5D2
:1052C00000F002F9922449004FF000514FF0805352
:1052D000FFF7B8BFB0FA80F310FA03F10AD0C3F1B8
:1052E0001D0303F580634FEA41504FEA035202EB7E
:1052F000D12170474FF000007047000051EA030CC5
:1053000017D41CF5801F58BFBCF5801F00F1068024
:10531000994218BF704708BF9042704707D711F5F0
:10532000801F58BF13F5801F19D4994270478942D6
:1053300070471CF5801F08D5BCF5801FF7D58B4240
:1053400018BF704708BF824270474FF4001C1CEB27
:10535000410F38BF1CEB430F01D28B42704770B531
:1053600000F0B2F8922449004FF000514FF0805302
:10537000FFF768BFDFF848C170B51CEA111E1EBFF9
:105380001CEA13159EEA0C0F95EA0C0F00F06F80D3
:1053900081EA030423EA4C134EEAD47E21EA4C113D
:1053A00041F4801143F48013AE44A1FB024CA0FBF6
:1053B0000365AEF17F7E361955EB0C05A1FB034C5E
:1053C0004CF10003A0FB021C16EB0C06654153F1E7
:1053D0000003094218BF46F0010613F4007F0BD109
:1053E0004FEA03314FEA0530340341EA155140EAF0
:1053F00016506FF003020AE04FEAC3214FEAC520BE
:10540000F40241EA555140EA56506FF0020202EBB5
:105410002E4201EB025585EACE710AD05FEA440CB8
:1054200018BF24F0004450F1000041F1000120EACF
:10543000D47040F2FE7C624500D270BDA84214BF19
:105440004FF080444FF04044002E08BF0024BEF1CE
:10545000806FA8BFA1F1C041BDE8704080F282809A
:105460004FF0000001F1C04101F0004170479EEA99
:105470000C0F0CEA131518BF95EA0C0F06D04FF06D
:10548000000081EA030E0EF0004170BD00F01CF830
:105490008900013E00F007B800F009B84FEA430C5C
:1054A0005FEA5C5C08D081EA030100F05BB84FEA78
:1054B000410C5FEA5C5CF6D14FF000000149704797
:1054C0000000FF070000F87F0EF1020E2EF0030E21
:1054D0005EF8046B364205D4012A43EB030515F54B
:1054E000001F12D8012841EB010C1CF5001F0CD83D
:1054F0000ED14FEAD17C15F5001F0CEB4C0C0CF1D2
:10550000020C08BF4CEBD37C04E04FF0080C01E028
:105510004FEAD37C0CEB4C0526FA05F606F007069D
:10552000B6F1040C06D20EEB860CBDE870404CF0D0
:10553000010C6047DFE80CF0090B02024FF000415C
:105540004FF00000A1F5002170BD1946104601285A
:1055500051EB010418BFD4F5001484BF002001F002
:10556000004170BD0808A0F500114FEA31017047F5
:1055700053EA010C17D41CF5801F58BFBCF5801FDF
:1055800000F106808B4218BF704708BF8242704707
:1055900007D713F5801F58BF11F5801F19D48B4210
:1055A00070479B4270471CF5801F08D5BCF5801FD3
:1055B000F7D5994218BF704708BF904270474FF423
:1055C000001C1CEB430F38BF1CEB410F01D299426A
:1055D00070470FB40CBC03BCFFF7C1BE43004FEAD9
:1055E000D30C4FEA3C0C43401FBF40070CF1605105
:1055F00013F0FE4F70471CF0006F03D100200CF039
:10560000004170470CF0004343EA507010B540EA87
:10561000CC0000F00EF800BF000000924FEA00013D
:10562000FFF7A0BF4FF000414FF00000A1F50021AF
:1056300070470EF1020E2EF0030E5EF8044B24426A
:1056400004D44FEA4102B2F17F4F11D84FEA400330
:10565000B3F17F4F0CD80ED14FEAD07CB2F17F4F1F
:105660000CEB4C0C0CF1020C08BF4CEBD17C04E0B1
:105670004FF0080C01E04FEAD17C0CEB4C0324FA0C
:1056800003F404F00704B4F1040C06D20EEB840C0E
:10569000BDE810404CF0010C6047DFE80CF0070853
:1056A00002024FF00040A0F5800010BD0846420005
:1056B00018BFD2F1807288BF00F0004010BD4FF0DB
:1056C0004070E1EE100A7047FF2141EAD050C0055A
:1056D0007047FBF7F2B80CF00F03092B08BF082046
:1056E00000F05F800A2B0BD0082B18BF704708BF53
:1056F0001CF0400F0AD04FF000004FF0000170473F
:105700001CF0400F18BF4FF0004070471CF0100F06
:1057100008D020F0704300F07F4242EAD3014FEA04
:105720004370704700F0604021F07F4242EA00027F
:1057300001F07F4040EA727070474FF0FF0C4CF46C
:10574000E06C1CEA11531CBF9CEA030C9445C2BFD9
:10575000DA4201EB02517047002B0DD0BCF1000F73
:105760000FD0002A01F00041A4BF41F0E04141F018
:105770007F614FF00000704701F000414FF00000E2
:10578000704750EA01334FF09B0C18BF4CF0806C0F
:105790007FF450AD7047FBF7E5BAFBF7B7BFFCF7F6
:1057A00041B91CF4801F11D01CF4E02F03D06FEA24
:1057B000CC31490070474FF04050EFF3008222F0A7
:1057C000704242EA000282F3008870474FF0000006
:1057D00070470006101600061016000000000000BA
:1057E000000001020304060708090000000001028E
:1057F0000304000002400000000000A000000000C0
:1058000005400000000000C8000000000C4000003F
:105810000000409C00000000194000000020BCBEB9
:105820000000000034400000BFC91B8E00000004CF
:10583000B5400000504BCFD06607E2CF010000001A
:105840006C4100003E8251AADFEEA7340100000047
:10585000D9420000DCB5A0E23A301F97FFFFFFFFFE
:10586000B4450000FD25A0C8E9A3C14FFFFFFFFF1D
:10587000FF3F00000000008000000000FF3F00002C
:105880000000008000000000DC590008000000203B
:105890002C000000C4010008085A00082C00002059
:1058A000E4090000E0010008000000000000F07FB3
:1058B0001C00000043000000F8FFFFFF0C00000088
:1058C0000E0000000F0000002E000000100100007C
:1058D00043000000F8FFFFFF0040404040404040D0
:1058E00040404141414141404040404040404040B3
:1058F0004040404040404040400502020202020257
:1059000002020202020202020220202020202020A5
:1059100020202002020202020202909090909090B9
:105920001010101010101010101010101010101077
:1059300010101010020202020202888888888888EB
:1059400008080808080808080808080808080808D7
:1059500008080808020202024000000000000000DF
:105960000000000000000000000000000000000037
:105970000000000000000000000000000000000027
:105980000000000000000000000000000000000017
:105990000000000000000000000000000000000007
:1059A00000000000000000000000000000000000F7
:1059B00000000000000000000000000000000000E7
:1059C00000000000000000000000000000000000D7
:1059D00000000000000000000000000000000000C7
:1059E00000000000000000000000000000000000B7
:1059F0000000000000000000010000001000000096
:085A0000000000000024F40086
:040000050800018965
:00000001FF
